:100FCC002057656C636F6D6520746F202020202086
:100FDC00002044612056696E636920436F6465216B
:100FEC002000FEFDFBEFDF3F065B4F666D7D077F4C
:020FFC006FFF85
:100F5C0002240000021800010A0E00FF00FF00FF2F
:100F6C0000FF00FF0A1AFFFFFFBFFFEFFFFBFFFEB2
:080F7C0006080000000000005F
:100E6500120F1F1210711210767D017F01120F975C
:100E75007BFF7A0F79CC120FFE7D017F02120F974F
:100E85007BFF7A0F79DD120FFED2B7C2A6C2A77516
:100E95008901758CD8758AF0D2A9D28C758DD875D3
:100EA5008BF0D2ABD28ED2AF7590FF20B7FDE4F5B3
:100EB50026F527E52725E0240EF876000876FF05B8
:100EC50027E527700205266405452670E6E4F52426
:0B0ED500F525D2B7F51875190180D083
:100F8400012B0F012A0F022E0003022C0014022849
:020F940000005B
:0F104E00C2A6C2A78F80C2A6D2A7C2A6C2A722DF
:05103A00F583E493FFC3
:0F103F00C2A6C2A78F80D2A6C2A7C2A6C2A722EE
:03001B00020CECE8
:100CEC00C0E0C083C082C0D075D000C000C0077502
:100CFC008B00758DDCC28FE52F152F7002152EE53C
:100D0C002F452E6003020DCCE5294528701B7FFE74
:100D1C0012104E74F3250FF582740F350E12103A23
:100D2C00752800752901020DBBE529640145287061
:100D3C001A7FFD12104E74F32511F582740F3510C5
:100D4C0012103A7528007529028064E52964024561
:100D5C0028701A7FFB12104E74F32513F582740F52
:100D6C00351212103A7528007529038042E5296462
:100D7C00034528701A7FEF12104E74F32515F58277
:100D8C00740F351412103A7528007529048020E56B
:100D9C00296404452870187FDF12104E74F3251750
:100DAC00F582740F351612103A752800752900E576
:100DBC002525E0241AF808E6F590752E00752F030A
:0D0DCC00D007D000D0D0D082D083D0E0324C
:03000B00020800E8
:10080000C0E0C0F0C083C082C0D075D000C000C0BE
:0D08100001C002C003C004C005C006C0073F
:10081D00E4F9F508750905F50A750B02F50CF50DEA
:10082D00758CDCF58AE52D152D7002152CE52D4501
:10083D002C6003020CD1F52C752D14E519640445BB
:10084D0018600302097C75B0BFE5B0540FF52B6538
:10085D002A6013E52BB4070E75120075130AE519FE
:10086D0015197002151875B0EFE5B0540FF52B651D
:10087D002A700302097CE52B6407600302097C05DD
:10088D0019E51970020518E50FB5092EE50EB50825
:10089D0029E511B50B24E510B50A1FE513B50D1AA1
:1008AD00E512B50C15751400751501751600751743
:1008BD000A75240075250002097CAE0AAF0B7C0079
:1008CD007D0A120F0DAA06AB07AE08AF097D6412A3
:1008DD000F0DEF2BFFEE3ACF250DFBEF350CFAAEDA
:1008ED0010AF117D0A120F0D8E838F82AE0EAF0FDA
:1008FD007D64120F0DEF2582FFEE3583CF2513CFCB
:10090D003512CFC39BCF9AFED3EF9400EE64809443
:10091D008040087516007517058006751600751749
:10092D00060525E5257002052464054524702285FC
:10093D00080E85090F850A10850B11850C12850D82
:10094D0013F51475150AF51675170AF524F5258096
:10095D001E75140075150075120075130A751000BB
:10096D0075110A750E00750F0A751800751901E5D8
:10097D0019640345186003020A9F75B0BFE5B054B2
:10098D000FF52B652A6050E52BB40E0F751200750F
:10099D001309090519E51970020518E52BB40D0F9A
:1009AD00751200751306090519E51970020518E58C
:1009BD002BB40B0F751200751303090519E519708A
:1009CD00020518E52BB4070F09E519151970021565
:1009DD001875100075110A75B0DFE5B0540FF52BC1
:1009ED00652A6050E52BB40E0F75120075130809BA
:1009FD000519E51970020518E52BB40D0F751200D8
:100A0D00751305090519E51970020518E52BB40BC9
:100A1D000F751200751302090519E51970020518F5
:100A2D00E52BB4070F751200751300090519E519AB
:100A3D007002051875B0EFE5B0540FF52B652A60FF
:100A4D003CE52BB40E0F751200751307090519E55A
:100A5D001970020518E52BB40D0F751200751304EE
:100A6D00090519E51970020518E52BB40B0F751260
:100A7D0000751301090519E51970020518E9C394EC
:100A8D0002400C75120075130A75180075190302D2
:100A9D000BBFE519640245186003020BC275B0BFA8
:100AAD00E5B0540FF52B652A6050E52BB40E0F758C
:100ABD001000751109090519E51970020518E52BC6
:100ACD00B40D0F751000751106090519E5197002A1
:100ADD000518E52BB40B0F751000751103090519D9
:100AED00E51970020518E52BB4070F09E51915195D
:100AFD0070021518750E00750F0A75B0DFE5B0544C
:100B0D000FF52B652A6050E52BB40E0F751000758F
:100B1D001108090519E51970020518E52BB40D0F1B
:100B2D00751000751105090519E51970020518E50F
:100B3D002BB40B0F751000751102090519E519700D
:100B4D00020518E52BB4070F751000751100090586
:100B5D0019E5197002051875B0EFE5B0540FF52BB6
:100B6D00652A603CE52BB40E0F7510007511070951
:100B7D000519E51970020518E52BB40D0F75100058
:100B8D00751104090519E51970020518E52BB40B4B
:100B9D000F751000751101090519E5197002051879
:100BAD00E9C39402400C75100075110A7518007593
:100BBD001902852B2AE519640145186003020CD131
:100BCD0075B0BFE5B0540FF52B652A603CE52BB42D
:100BDD000E0F750E00750F09090519E5197002053F
:100BED0018E52BB40D0F750E00750F06090519E5E7
:100BFD001970020518E52BB40B0F750E00750F0358
:100C0D00090519E5197002051875B0DFE5B0540F27
:100C1D00F52B652A6050E52BB40E0F750E00750F80
:100C2D0008090519E51970020518E52BB40D0F75A6
:100C3D000E00750F05090519E51970020518E52B4C
:100C4D00B40B0F750E00750F02090519E519700229
:100C5D000518E52BB4070F750E00750F0009051962
:100C6D00E5197002051875B0EFE5B0540FF52B6559
:100C7D002A603CE52BB40E0F750E00750F070905A4
:100C8D0019E51970020518E52BB40D0F750E0075D9
:100C9D000F04090519E51970020518E52BB40B0FA2
:100CAD00750E00750F01090519E51970020518E992
:100CBD00C39402400C750E00750F0A751800751956
:040CCD0001852B2A48
:100CD100D007D006D005D004D003D002D001D00077
:0B0CE100D0D0D082D083D0F0D0E03221
:08101F008F80D2A57FB87E0B83
:10102700D3EF9400EE648094804007EF1F70F11EA9
:0310370080EE2226
:0A105D00C291C29012101FC2A5221A
:051071007F0102105D8B
:051076007F0202105D85
:0A106700D290C29112101FC2A52200
:060FFE008B308A318932BC
:10100400E4FDAB30AA31A9328D82758300120EE063
:0A101400FF60071210670DBD32E8FF
:01101E0022AF
:100F1F00C291C2A51210231210237F3012105D7FD1
:100F2F000112105DE4FDFC1210230DBD00010CED4C
:100F3F00640A4C70F27F3F12105D7F0C12105D7FC0
:0D0F4F000612105D121023121071021076B0
:100F9700EF1475F040A4FFED142F2480FDE4FBFA55
:100FA7001210230BBB00010AEB640A4A70F2AF056B
:100FB70012105DE4FAFB1210230BBB00010AEB646D
:040FC7000A4A70F270
:010FCB002203
:03000000020DD915
:0C0DD900787FE4F6D8FD758132020E2010
:100EE000BB010CE58229F582E5833AF583E02250C7
:100EF00006E92582F8E622BBFE06E92582F8E22211
:0D0F0000E58229F582E5833AF583E493222A
:100F0D00EF8DF0A4A8F0CF8CF0A428CE8DF0A42EF8
:020F1D00FE22B2
:100DE500020E65E493A3F8E493A34003F68001F2B1
:100DF50008DFF48029E493A3F85407240CC8C3330F
:100E0500C4540F4420C8834004F456800146F6DFDD
:100E1500E4800B0102040810204080900F5CE47E02
:100E2500019360BCA3FF543F30E509541FFEE493D2
:100E3500A360010ECF54C025E060A840B8E493A399
:100E4500FAE493A3F8E493A3C8C582C8CAC583CAC4
:100E5500F0A3C8C582C8CAC583CADFE9DEE780BE7C
:010F9600005A
:00000001FF
